{
  "contractName": "ICOWHITELIST",
  "abi": [
    {
      "constant": true,
      "inputs": [],
      "name": "whitelistedInvestorsCount",
      "outputs": [
        {
          "name": "",
          "type": "uint256"
        }
      ],
      "payable": false,
      "stateMutability": "view",
      "type": "function"
    },
    {
      "constant": true,
      "inputs": [
        {
          "name": "",
          "type": "address"
        }
      ],
      "name": "whitelistedInvestors",
      "outputs": [
        {
          "name": "",
          "type": "bool"
        }
      ],
      "payable": false,
      "stateMutability": "view",
      "type": "function"
    },
    {
      "constant": true,
      "inputs": [],
      "name": "contractOwner",
      "outputs": [
        {
          "name": "",
          "type": "address"
        }
      ],
      "payable": false,
      "stateMutability": "view",
      "type": "function"
    },
    {
      "inputs": [],
      "payable": false,
      "stateMutability": "nonpayable",
      "type": "constructor"
    },
    {
      "constant": false,
      "inputs": [
        {
          "name": "_investors",
          "type": "address[]"
        }
      ],
      "name": "whiteListAddresses",
      "outputs": [],
      "payable": false,
      "stateMutability": "nonpayable",
      "type": "function"
    }
  ],
  "bytecode": "0x608060405234801561001057600080fd5b50336000806101000a81548173ffffffffffffffffffffffffffffffffffffffff021916908373ffffffffffffffffffffffffffffffffffffffff160217905550610336806100606000396000f300608060405260043610610062576000357c0100000000000000000000000000000000000000000000000000000000900463ffffffff168063470ceb011461006757806386940fda14610092578063ce606ee0146100ed578063e13639db14610144575b600080fd5b34801561007357600080fd5b5061007c61017f565b6040518082815260200191505060405180910390f35b34801561009e57600080fd5b506100d3600480360381019080803573ffffffffffffffffffffffffffffffffffffffff169060200190929190505050610185565b604051808215151515815260200191505060405180910390f35b3480156100f957600080fd5b506101026101a5565b604051808273ffffffffffffffffffffffffffffffffffffffff1673ffffffffffffffffffffffffffffffffffffffff16815260200191505060405180910390f35b34801561015057600080fd5b5061017d6004803603810190808035906020019082018035906020019190919293919293905050506101ca565b005b60025481565b60016020528060005260406000206000915054906101000a900460ff1681565b6000809054906101000a900473ffffffffffffffffffffffffffffffffffffffff1681565b600080600091508383905090505b8082101561030457600015156001600086868681811015156101f657fe5b9050602002013573ffffffffffffffffffffffffffffffffffffffff1673ffffffffffffffffffffffffffffffffffffffff1673ffffffffffffffffffffffffffffffffffffffff16815260200190815260200160002060009054906101000a900460ff16151514156102f7576001806000868686818110151561027657fe5b9050602002013573ffffffffffffffffffffffffffffffffffffffff1673ffffffffffffffffffffffffffffffffffffffff1673ffffffffffffffffffffffffffffffffffffffff16815260200190815260200160002060006101000a81548160ff0219169083151502179055506002600081548092919060010191905055505b81806001019250506101d8565b505050505600a165627a7a72305820bec76786785903dd3488c04a47bbc500e9b6bb456c581567ae008501d6ba1cad0029",
  "source": "pragma solidity 0.4.24;\n\n\ncontract ICOWHITELIST {\n    // Address which will receive raised funds\n    address public contractOwner;\n\n\n    // adreess vs state mapping (1 for exists , zero default);\n    mapping (address=>bool) public whitelistedInvestors;\n    uint256 public whitelistedInvestorsCount;\n\n    /// modifiers\n    modifier onlyOwner() {\n        require(msg.sender == contractOwner);\n        _;\n    }\n    \n    // constructor function \n    constructor() public {\n        contractOwner = msg.sender;\n    }\n\n    // whitelist function\n    function whiteListAddresses(address[] _investors) external {\n        uint i = 0;\n        uint arrayLength = _investors.length;\n\n        for (i; i < arrayLength; i++) {\n            if (whitelistedInvestors[_investors[i]] == false) {\n                whitelistedInvestors[_investors[i]] = true;\n                whitelistedInvestorsCount++;\n            }\n            \n        }\n    }\n}\n",
  "sourcePath": "/Users/jawwadzafar/blockchain/ico_address_whitelisitng/contracts/ICOWHITELIST.sol",
  "compiler": {
    "name": "solc",
    "version": "0.4.24+commit.e67f0147.Emscripten.clang"
  },
  "schemaVersion": "2.0.0",
  "updatedAt": "2018-05-27T09:57:39.509Z"
}