{
  "contractName": "TravelHelperToken",
  "abi": [
    {
      "constant": true,
      "inputs": [],
      "name": "name",
      "outputs": [
        {
          "name": "",
          "type": "string"
        }
      ],
      "payable": false,
      "stateMutability": "view",
      "type": "function"
    },
    {
      "constant": false,
      "inputs": [
        {
          "name": "_spender",
          "type": "address"
        },
        {
          "name": "_value",
          "type": "uint256"
        }
      ],
      "name": "approve",
      "outputs": [
        {
          "name": "",
          "type": "bool"
        }
      ],
      "payable": false,
      "stateMutability": "nonpayable",
      "type": "function"
    },
    {
      "constant": true,
      "inputs": [],
      "name": "advisorsAddress",
      "outputs": [
        {
          "name": "",
          "type": "address"
        }
      ],
      "payable": false,
      "stateMutability": "view",
      "type": "function"
    },
    {
      "constant": true,
      "inputs": [],
      "name": "tokensForSale",
      "outputs": [
        {
          "name": "",
          "type": "uint256"
        }
      ],
      "payable": false,
      "stateMutability": "view",
      "type": "function"
    },
    {
      "constant": true,
      "inputs": [],
      "name": "totalSupply",
      "outputs": [
        {
          "name": "",
          "type": "uint256"
        }
      ],
      "payable": false,
      "stateMutability": "view",
      "type": "function"
    },
    {
      "constant": true,
      "inputs": [],
      "name": "bountyTokens",
      "outputs": [
        {
          "name": "",
          "type": "uint256"
        }
      ],
      "payable": false,
      "stateMutability": "view",
      "type": "function"
    },
    {
      "constant": true,
      "inputs": [],
      "name": "tokensSupply",
      "outputs": [
        {
          "name": "",
          "type": "uint256"
        }
      ],
      "payable": false,
      "stateMutability": "view",
      "type": "function"
    },
    {
      "constant": true,
      "inputs": [],
      "name": "decimals",
      "outputs": [
        {
          "name": "",
          "type": "uint256"
        }
      ],
      "payable": false,
      "stateMutability": "view",
      "type": "function"
    },
    {
      "constant": true,
      "inputs": [],
      "name": "creater",
      "outputs": [
        {
          "name": "",
          "type": "address"
        }
      ],
      "payable": false,
      "stateMutability": "view",
      "type": "function"
    },
    {
      "constant": true,
      "inputs": [],
      "name": "advisorsTokens",
      "outputs": [
        {
          "name": "",
          "type": "uint256"
        }
      ],
      "payable": false,
      "stateMutability": "view",
      "type": "function"
    },
    {
      "constant": true,
      "inputs": [
        {
          "name": "_owner",
          "type": "address"
        }
      ],
      "name": "balanceOf",
      "outputs": [
        {
          "name": "",
          "type": "uint256"
        }
      ],
      "payable": false,
      "stateMutability": "view",
      "type": "function"
    },
    {
      "constant": true,
      "inputs": [],
      "name": "releasedAdvisorsTokens",
      "outputs": [
        {
          "name": "",
          "type": "uint256"
        }
      ],
      "payable": false,
      "stateMutability": "view",
      "type": "function"
    },
    {
      "constant": true,
      "inputs": [],
      "name": "teamAddressOne",
      "outputs": [
        {
          "name": "",
          "type": "address"
        }
      ],
      "payable": false,
      "stateMutability": "view",
      "type": "function"
    },
    {
      "constant": true,
      "inputs": [
        {
          "name": "",
          "type": "address"
        }
      ],
      "name": "frozenAccounts",
      "outputs": [
        {
          "name": "",
          "type": "bool"
        }
      ],
      "payable": false,
      "stateMutability": "view",
      "type": "function"
    },
    {
      "constant": true,
      "inputs": [],
      "name": "owner",
      "outputs": [
        {
          "name": "",
          "type": "address"
        }
      ],
      "payable": false,
      "stateMutability": "view",
      "type": "function"
    },
    {
      "constant": false,
      "inputs": [
        {
          "name": "_spender",
          "type": "address"
        },
        {
          "name": "_oldValue",
          "type": "uint256"
        },
        {
          "name": "_newValue",
          "type": "uint256"
        }
      ],
      "name": "changeApproval",
      "outputs": [
        {
          "name": "success",
          "type": "bool"
        }
      ],
      "payable": false,
      "stateMutability": "nonpayable",
      "type": "function"
    },
    {
      "constant": true,
      "inputs": [],
      "name": "symbol",
      "outputs": [
        {
          "name": "",
          "type": "string"
        }
      ],
      "payable": false,
      "stateMutability": "view",
      "type": "function"
    },
    {
      "constant": true,
      "inputs": [],
      "name": "fundraising",
      "outputs": [
        {
          "name": "",
          "type": "bool"
        }
      ],
      "payable": false,
      "stateMutability": "view",
      "type": "function"
    },
    {
      "constant": true,
      "inputs": [],
      "name": "icoStartTime",
      "outputs": [
        {
          "name": "",
          "type": "uint256"
        }
      ],
      "payable": false,
      "stateMutability": "view",
      "type": "function"
    },
    {
      "constant": true,
      "inputs": [],
      "name": "releasedTeamTokens",
      "outputs": [
        {
          "name": "",
          "type": "uint256"
        }
      ],
      "payable": false,
      "stateMutability": "view",
      "type": "function"
    },
    {
      "constant": true,
      "inputs": [],
      "name": "ownable",
      "outputs": [
        {
          "name": "",
          "type": "address"
        }
      ],
      "payable": false,
      "stateMutability": "view",
      "type": "function"
    },
    {
      "constant": true,
      "inputs": [],
      "name": "teamTokens",
      "outputs": [
        {
          "name": "",
          "type": "uint256"
        }
      ],
      "payable": false,
      "stateMutability": "view",
      "type": "function"
    },
    {
      "constant": true,
      "inputs": [],
      "name": "teamAddressTwo",
      "outputs": [
        {
          "name": "",
          "type": "address"
        }
      ],
      "payable": false,
      "stateMutability": "view",
      "type": "function"
    },
    {
      "constant": true,
      "inputs": [],
      "name": "saleContract",
      "outputs": [
        {
          "name": "",
          "type": "address"
        }
      ],
      "payable": false,
      "stateMutability": "view",
      "type": "function"
    },
    {
      "constant": true,
      "inputs": [
        {
          "name": "_owner",
          "type": "address"
        },
        {
          "name": "_spender",
          "type": "address"
        }
      ],
      "name": "allowance",
      "outputs": [
        {
          "name": "",
          "type": "uint256"
        }
      ],
      "payable": false,
      "stateMutability": "view",
      "type": "function"
    },
    {
      "constant": true,
      "inputs": [],
      "name": "marketingTeamTokens",
      "outputs": [
        {
          "name": "",
          "type": "uint256"
        }
      ],
      "payable": false,
      "stateMutability": "view",
      "type": "function"
    },
    {
      "constant": true,
      "inputs": [],
      "name": "totalReleased",
      "outputs": [
        {
          "name": "",
          "type": "uint256"
        }
      ],
      "payable": false,
      "stateMutability": "view",
      "type": "function"
    },
    {
      "constant": true,
      "inputs": [],
      "name": "marketingTeamAddress",
      "outputs": [
        {
          "name": "",
          "type": "address"
        }
      ],
      "payable": false,
      "stateMutability": "view",
      "type": "function"
    },
    {
      "constant": true,
      "inputs": [],
      "name": "releasedMarketingTokens",
      "outputs": [
        {
          "name": "",
          "type": "uint256"
        }
      ],
      "payable": false,
      "stateMutability": "view",
      "type": "function"
    },
    {
      "inputs": [
        {
          "name": "_tokensOwner",
          "type": "address"
        },
        {
          "name": "_teamAddressOne",
          "type": "address"
        },
        {
          "name": "_teamAddressTwo",
          "type": "address"
        },
        {
          "name": "_marketingTeamAddress",
          "type": "address"
        },
        {
          "name": "_advisorsAddress",
          "type": "address"
        }
      ],
      "payable": false,
      "stateMutability": "nonpayable",
      "type": "constructor"
    },
    {
      "payable": false,
      "stateMutability": "nonpayable",
      "type": "fallback"
    },
    {
      "anonymous": false,
      "inputs": [
        {
          "indexed": false,
          "name": "target",
          "type": "address"
        },
        {
          "indexed": false,
          "name": "frozen",
          "type": "bool"
        }
      ],
      "name": "FrozenFund",
      "type": "event"
    },
    {
      "anonymous": false,
      "inputs": [
        {
          "indexed": false,
          "name": "text",
          "type": "string"
        }
      ],
      "name": "PriceLog",
      "type": "event"
    },
    {
      "anonymous": false,
      "inputs": [
        {
          "indexed": true,
          "name": "previousOwner",
          "type": "address"
        },
        {
          "indexed": true,
          "name": "newOwner",
          "type": "address"
        }
      ],
      "name": "OwnershipTransferred",
      "type": "event"
    },
    {
      "anonymous": false,
      "inputs": [
        {
          "indexed": true,
          "name": "from",
          "type": "address"
        },
        {
          "indexed": true,
          "name": "to",
          "type": "address"
        },
        {
          "indexed": false,
          "name": "value",
          "type": "uint256"
        }
      ],
      "name": "Transfer",
      "type": "event"
    },
    {
      "anonymous": false,
      "inputs": [
        {
          "indexed": true,
          "name": "owner",
          "type": "address"
        },
        {
          "indexed": true,
          "name": "spender",
          "type": "address"
        },
        {
          "indexed": false,
          "name": "value",
          "type": "uint256"
        }
      ],
      "name": "Approval",
      "type": "event"
    },
    {
      "anonymous": false,
      "inputs": [
        {
          "indexed": true,
          "name": "from",
          "type": "address"
        },
        {
          "indexed": false,
          "name": "value",
          "type": "uint256"
        }
      ],
      "name": "Burn",
      "type": "event"
    },
    {
      "anonymous": false,
      "inputs": [
        {
          "indexed": false,
          "name": "saleContract",
          "type": "address"
        },
        {
          "indexed": false,
          "name": "tokensForSale",
          "type": "uint256"
        }
      ],
      "name": "SaleContractActivation",
      "type": "event"
    },
    {
      "constant": false,
      "inputs": [
        {
          "name": "_to",
          "type": "address"
        },
        {
          "name": "_value",
          "type": "uint256"
        }
      ],
      "name": "transfer",
      "outputs": [
        {
          "name": "success",
          "type": "bool"
        }
      ],
      "payable": false,
      "stateMutability": "nonpayable",
      "type": "function"
    },
    {
      "constant": false,
      "inputs": [
        {
          "name": "_from",
          "type": "address"
        },
        {
          "name": "_to",
          "type": "address"
        },
        {
          "name": "_value",
          "type": "uint256"
        }
      ],
      "name": "transferFrom",
      "outputs": [
        {
          "name": "success",
          "type": "bool"
        }
      ],
      "payable": false,
      "stateMutability": "nonpayable",
      "type": "function"
    },
    {
      "constant": false,
      "inputs": [
        {
          "name": "_saleContract",
          "type": "address"
        }
      ],
      "name": "activateSaleContract",
      "outputs": [],
      "payable": false,
      "stateMutability": "nonpayable",
      "type": "function"
    },
    {
      "constant": false,
      "inputs": [
        {
          "name": "_value",
          "type": "uint256"
        }
      ],
      "name": "burn",
      "outputs": [
        {
          "name": "burnSuccess",
          "type": "bool"
        }
      ],
      "payable": false,
      "stateMutability": "nonpayable",
      "type": "function"
    },
    {
      "constant": false,
      "inputs": [],
      "name": "burn",
      "outputs": [
        {
          "name": "burnSuccess",
          "type": "bool"
        }
      ],
      "payable": false,
      "stateMutability": "nonpayable",
      "type": "function"
    },
    {
      "constant": true,
      "inputs": [],
      "name": "vestingStage",
      "outputs": [
        {
          "name": "",
          "type": "uint256"
        }
      ],
      "payable": false,
      "stateMutability": "view",
      "type": "function"
    },
    {
      "constant": false,
      "inputs": [],
      "name": "releaseTeamTokens",
      "outputs": [
        {
          "name": "",
          "type": "bool"
        }
      ],
      "payable": false,
      "stateMutability": "nonpayable",
      "type": "function"
    },
    {
      "constant": false,
      "inputs": [],
      "name": "releaseAdvisorsTokens",
      "outputs": [],
      "payable": false,
      "stateMutability": "nonpayable",
      "type": "function"
    },
    {
      "constant": false,
      "inputs": [],
      "name": "releaseMarketingTokens",
      "outputs": [],
      "payable": false,
      "stateMutability": "nonpayable",
      "type": "function"
    },
    {
      "constant": false,
      "inputs": [],
      "name": "finalize",
      "outputs": [],
      "payable": false,
      "stateMutability": "nonpayable",
      "type": "function"
    },
    {
      "constant": false,
      "inputs": [
        {
          "name": "target",
          "type": "address"
        },
        {
          "name": "freeze",
          "type": "bool"
        }
      ],
      "name": "freezeAccount",
      "outputs": [],
      "payable": false,
      "stateMutability": "nonpayable",
      "type": "function"
    },
    {
      "constant": false,
      "inputs": [
        {
          "name": "_to",
          "type": "address"
        },
        {
          "name": "_value",
          "type": "uint256"
        }
      ],
      "name": "sendBounty",
      "outputs": [
        {
          "name": "",
          "type": "bool"
        }
      ],
      "payable": false,
      "stateMutability": "nonpayable",
      "type": "function"
    },
    {
      "constant": false,
      "inputs": [
        {
          "name": "newOwner",
          "type": "address"
        }
      ],
      "name": "transferOwnership",
      "outputs": [],
      "payable": false,
      "stateMutability": "nonpayable",
      "type": "function"
    }
  ],
  "bytecode": "0x60606040526001600560146101000a81548160ff0219169083151502179055506000600655630120b880600c556230c780600d5564012a05f200600e556b04d8c55aefb8c05b5c000000600f556b019d971e4fe8401e740000006010556b0121836204bc2ce21e0000006011556a7c13bc4b2c133c560000006012556000601355600060145560006015556001601660006101000a81548160ff0219169083151502179055506b0813f3978f894098440000006017553415620000c157600080fd5b60405160a080620035a5833981016040528080519060200190919080519060200190919080519060200190919080519060200190919080519060200190919050508433600460006101000a81548173ffffffffffffffffffffffffffffffffffffffff021916908373ffffffffffffffffffffffffffffffffffffffff16021790555060008173ffffffffffffffffffffffffffffffffffffffff16141515620001ac5780600360006101000a81548173ffffffffffffffffffffffffffffffffffffffff021916908373ffffffffffffffffffffffffffffffffffffffff16021790555062000210565b600460009054906101000a900473ffffffffffffffffffffffffffffffffffffffff16600360006101000a81548173ffffffffffffffffffffffffffffffffffffffff021916908373ffffffffffffffffffffffffffffffffffffffff1602179055505b5060008573ffffffffffffffffffffffffffffffffffffffff16141515156200023857600080fd5b60008473ffffffffffffffffffffffffffffffffffffffff16141515156200025f57600080fd5b60008373ffffffffffffffffffffffffffffffffffffffff16141515156200028657600080fd5b60008273ffffffffffffffffffffffffffffffffffffffff1614151515620002ad57600080fd5b60008173ffffffffffffffffffffffffffffffffffffffff1614151515620002d457600080fd5b83600760006101000a81548173ffffffffffffffffffffffffffffffffffffffff021916908373ffffffffffffffffffffffffffffffffffffffff16021790555082600860006101000a81548173ffffffffffffffffffffffffffffffffffffffff021916908373ffffffffffffffffffffffffffffffffffffffff16021790555081600a60006101000a81548173ffffffffffffffffffffffffffffffffffffffff021916908373ffffffffffffffffffffffffffffffffffffffff16021790555080600960006101000a81548173ffffffffffffffffffffffffffffffffffffffff021916908373ffffffffffffffffffffffffffffffffffffffff1602179055506012600a0a600e540260008190555060005460026000600360009054906101000a900473ffffffffffffffffffffffffffffffffffffffff1673ffffffffffffffffffffffffffffffffffffffff1673ffffffffffffffffffffffffffffffffffffffff16815260200190815260200160002081905550600360009054906101000a900473ffffffffffffffffffffffffffffffffffffffff1673ffffffffffffffffffffffffffffffffffffffff1660007fddf252ad1be2c89b69c2b068fc378daa952ba7f163c4a11628f55a4df523b3ef6000546040518082815260200191505060405180910390a350505050506130cd80620004d86000396000f300606060405260043610610204576000357c0100000000000000000000000000000000000000000000000000000000900463ffffffff16806306fdde0314610214578063095ea7b3146102a25780630dc10a60146102fc57806312aef8c31461035157806314c411c71461037a57806318160ddd146103a75780631a9bf9cf146103d057806323b872dd146103f95780632bdad637146104725780632e5a6f171461049b578063313ce567146104b0578063404704b9146104d957806342966c681461053357806344df8e701461056e57806345653a6d1461059b5780634bb278f3146105f05780636078268b1461060557806370a082311461062e57806378e774771461067b5780637b06e907146106a4578063860838a5146106f95780638da5cb5b1461074a5780639281cd651461079f57806395d89b4114610802578063a70fc68014610890578063a7c3d71b146108bd578063a9059cbb146108e6578063aa53416114610940578063b38854be14610969578063b9578441146109be578063c3e3c7bc146109e7578063d71e930c14610a10578063daf6ca3014610a65578063dc31adee14610aba578063dd62ed3e14610acf578063e2948c2114610b3b578063e33b7de314610b64578063e724529c14610b8d578063f2fde38b14610bd1578063f3d12d7214610c0a578063fdd080a414610c5f578063feaed58914610c98575b341561020f57600080fd5b600080fd5b341561021f57600080fd5b610227610cc1565b6040518080602001828103825283818151815260200191508051906020019080838360005b8381101561026757808201518184015260208101905061024c565b50505050905090810190601f1680156102945780820380516001836020036101000a031916815260200191505b509250505060405180910390f35b34156102ad57600080fd5b6102e2600480803573ffffffffffffffffffffffffffffffffffffffff16906020019091908035906020019091905050610cfa565b604051808215151515815260200191505060405180910390f35b341561030757600080fd5b61030f610e9c565b604051808273ffffffffffffffffffffffffffffffffffffffff1673ffffffffffffffffffffffffffffffffffffffff16815260200191505060405180910390f35b341561035c57600080fd5b610364610ec2565b6040518082815260200191505060405180910390f35b341561038557600080fd5b61038d610ec8565b604051808215151515815260200191505060405180910390f35b34156103b257600080fd5b6103ba611404565b6040518082815260200191505060405180910390f35b34156103db57600080fd5b6103e361140a565b6040518082815260200191505060405180910390f35b341561040457600080fd5b610458600480803573ffffffffffffffffffffffffffffffffffffffff1690602001909190803573ffffffffffffffffffffffffffffffffffffffff16906020019091908035906020019091905050611410565b604051808215151515815260200191505060405180910390f35b341561047d57600080fd5b610485611683565b6040518082815260200191505060405180910390f35b34156104a657600080fd5b6104ae611689565b005b34156104bb57600080fd5b6104c3611808565b6040518082815260200191505060405180910390f35b34156104e457600080fd5b610519600480803573ffffffffffffffffffffffffffffffffffffffff1690602001909190803590602001909190505061180d565b604051808215151515815260200191505060405180910390f35b341561053e57600080fd5b61055460048080359060200190919050506119e8565b604051808215151515815260200191505060405180910390f35b341561057957600080fd5b610581611b53565b604051808215151515815260200191505060405180910390f35b34156105a657600080fd5b6105ae611bfc565b604051808273ffffffffffffffffffffffffffffffffffffffff1673ffffffffffffffffffffffffffffffffffffffff16815260200191505060405180910390f35b34156105fb57600080fd5b610603611c22565b005b341561061057600080fd5b610618611cbe565b6040518082815260200191505060405180910390f35b341561063957600080fd5b610665600480803573ffffffffffffffffffffffffffffffffffffffff16906020019091905050611cc4565b6040518082815260200191505060405180910390f35b341561068657600080fd5b61068e611d0d565b6040518082815260200191505060405180910390f35b34156106af57600080fd5b6106b7611d13565b604051808273ffffffffffffffffffffffffffffffffffffffff1673ffffffffffffffffffffffffffffffffffffffff16815260200191505060405180910390f35b341561070457600080fd5b610730600480803573ffffffffffffffffffffffffffffffffffffffff16906020019091905050611d39565b604051808215151515815260200191505060405180910390f35b341561075557600080fd5b61075d611d59565b604051808273ffffffffffffffffffffffffffffffffffffffff1673ffffffffffffffffffffffffffffffffffffffff16815260200191505060405180910390f35b34156107aa57600080fd5b6107e8600480803573ffffffffffffffffffffffffffffffffffffffff16906020019091908035906020019091908035906020019091905050611d7f565b604051808215151515815260200191505060405180910390f35b341561080d57600080fd5b610815611f15565b6040518080602001828103825283818151815260200191508051906020019080838360005b8381101561085557808201518184015260208101905061083a565b50505050905090810190601f1680156108825780820380516001836020036101000a031916815260200191505b509250505060405180910390f35b341561089b57600080fd5b6108a3611f4e565b604051808215151515815260200191505060405180910390f35b34156108c857600080fd5b6108d0611f61565b6040518082815260200191505060405180910390f35b34156108f157600080fd5b610926600480803573ffffffffffffffffffffffffffffffffffffffff16906020019091908035906020019091905050611f67565b604051808215151515815260200191505060405180910390f35b341561094b57600080fd5b61095361215f565b6040518082815260200191505060405180910390f35b341561097457600080fd5b61097c612165565b604051808273ffffffffffffffffffffffffffffffffffffffff1673ffffffffffffffffffffffffffffffffffffffff16815260200191505060405180910390f35b34156109c957600080fd5b6109d161218b565b6040518082815260200191505060405180910390f35b34156109f257600080fd5b6109fa612213565b6040518082815260200191505060405180910390f35b3415610a1b57600080fd5b610a23612219565b604051808273ffffffffffffffffffffffffffffffffffffffff1673ffffffffffffffffffffffffffffffffffffffff16815260200191505060405180910390f35b3415610a7057600080fd5b610a7861223f565b604051808273ffffffffffffffffffffffffffffffffffffffff1673ffffffffffffffffffffffffffffffffffffffff16815260200191505060405180910390f35b3415610ac557600080fd5b610acd612265565b005b3415610ada57600080fd5b610b25600480803573ffffffffffffffffffffffffffffffffffffffff1690602001909190803573ffffffffffffffffffffffffffffffffffffffff169060200190919050506123e4565b6040518082815260200191505060405180910390f35b3415610b4657600080fd5b610b4e61246b565b6040518082815260200191505060405180910390f35b3415610b6f57600080fd5b610b77612471565b6040518082815260200191505060405180910390f35b3415610b9857600080fd5b610bcf600480803573ffffffffffffffffffffffffffffffffffffffff169060200190919080351515906020019091905050612477565b005b3415610bdc57600080fd5b610c08600480803573ffffffffffffffffffffffffffffffffffffffff169060200190919050506125df565b005b3415610c1557600080fd5b610c1d6126fb565b604051808273ffffffffffffffffffffffffffffffffffffffff1673ffffffffffffffffffffffffffffffffffffffff16815260200191505060405180910390f35b3415610c6a57600080fd5b610c96600480803573ffffffffffffffffffffffffffffffffffffffff16906020019091905050612721565b005b3415610ca357600080fd5b610cab612a2d565b6040518082815260200191505060405180910390f35b6040805190810160405280601181526020017f54726176656c48656c706572546f6b656e00000000000000000000000000000081525081565b6000600260046020820201600036905010151515610d1457fe5b600083148015610da057506000600160003373ffffffffffffffffffffffffffffffffffffffff1673ffffffffffffffffffffffffffffffffffffffff16815260200190815260200160002060008673ffffffffffffffffffffffffffffffffffffffff1673ffffffffffffffffffffffffffffffffffffffff16815260200190815260200160002054145b1515610dab57600080fd5b82600160003373ffffffffffffffffffffffffffffffffffffffff1673ffffffffffffffffffffffffffffffffffffffff16815260200190815260200160002060008673ffffffffffffffffffffffffffffffffffffffff1673ffffffffffffffffffffffffffffffffffffffff168152602001908152602001600020819055508373ffffffffffffffffffffffffffffffffffffffff163373ffffffffffffffffffffffffffffffffffffffff167f8c5be1e5ebec7d5bd14f71427d1e84f3dd0314c0f7b2291e5b200ac8c7c3b925856040518082815260200191505060405180910390a3600191505092915050565b600960009054906101000a900473ffffffffffffffffffffffffffffffffffffffff1681565b60175481565b600080600080600080600b54118015610ef65750600d54610ef4600b5442612a3390919063ffffffff16565b115b15610f1b576000601660006101000a81548160ff021916908315150217905550610f20565b600080fd5b6000600f54111515610f3157600080fd5b600054600654101515610f4357600080fd5b6001610f4d61218b565b148015610f5c57506000601354145b156111c157610f8a6064610f7c6032600f54612a4c90919063ffffffff16565b612a8790919063ffffffff16565b9350610fb36064610fa5603287612a4c90919063ffffffff16565b612a8790919063ffffffff16565b92506110298360026000600760009054906101000a900473ffffffffffffffffffffffffffffffffffffffff1673ffffffffffffffffffffffffffffffffffffffff1673ffffffffffffffffffffffffffffffffffffffff16815260200190815260200160002054612a9d90919063ffffffff16565b60026000600760009054906101000a900473ffffffffffffffffffffffffffffffffffffffff1673ffffffffffffffffffffffffffffffffffffffff1673ffffffffffffffffffffffffffffffffffffffff168152602001908152602001600020819055506111028360026000600860009054906101000a900473ffffffffffffffffffffffffffffffffffffffff1673ffffffffffffffffffffffffffffffffffffffff1673ffffffffffffffffffffffffffffffffffffffff16815260200190815260200160002054612a9d90919063ffffffff16565b60026000600860009054906101000a900473ffffffffffffffffffffffffffffffffffffffff1673ffffffffffffffffffffffffffffffffffffffff1673ffffffffffffffffffffffffffffffffffffffff1681526020019081526020016000208190555061117c84601354612a9d90919063ffffffff16565b60138190555061119784600f54612a3390919063ffffffff16565b600f819055506111b284600654612a9d90919063ffffffff16565b600681905550600194506113fd565b60026111cb61218b565b14156113f857600f5491506111fd60646111ef603285612a4c90919063ffffffff16565b612a8790919063ffffffff16565b90506112738160026000600760009054906101000a900473ffffffffffffffffffffffffffffffffffffffff1673ffffffffffffffffffffffffffffffffffffffff1673ffffffffffffffffffffffffffffffffffffffff16815260200190815260200160002054612a9d90919063ffffffff16565b60026000600760009054906101000a900473ffffffffffffffffffffffffffffffffffffffff1673ffffffffffffffffffffffffffffffffffffffff1673ffffffffffffffffffffffffffffffffffffffff1681526020019081526020016000208190555061134c8160026000600860009054906101000a900473ffffffffffffffffffffffffffffffffffffffff1673ffffffffffffffffffffffffffffffffffffffff1673ffffffffffffffffffffffffffffffffffffffff16815260200190815260200160002054612a9d90919063ffffffff16565b60026000600860009054906101000a900473ffffffffffffffffffffffffffffffffffffffff1673ffffffffffffffffffffffffffffffffffffffff1673ffffffffffffffffffffffffffffffffffffffff168152602001908152602001600020819055506000600f819055506113ce82601354612a9d90919063ffffffff16565b6013819055506113e982600654612a9d90919063ffffffff16565b600681905550600194506113fd565b600094505b5050505090565b60005481565b60125481565b6000600360009054906101000a900473ffffffffffffffffffffffffffffffffffffffff1673ffffffffffffffffffffffffffffffffffffffff163373ffffffffffffffffffffffffffffffffffffffff1614156115635760036004602082020160003690501015151561148057fe5b600073ffffffffffffffffffffffffffffffffffffffff168473ffffffffffffffffffffffffffffffffffffffff16141515156114bc57600080fd5b600073ffffffffffffffffffffffffffffffffffffffff168573ffffffffffffffffffffffffffffffffffffffff16141515156114f857600080fd5b601860003373ffffffffffffffffffffffffffffffffffffffff1673ffffffffffffffffffffffffffffffffffffffff16815260200190815260200160002060009054906101000a900460ff1615151561155157600080fd5b61155c858585612abb565b505061167c565b60001515600560149054906101000a900460ff16151514151561158557600080fd5b60036004602082020160003690501015151561159d57fe5b600073ffffffffffffffffffffffffffffffffffffffff168473ffffffffffffffffffffffffffffffffffffffff16141515156115d957600080fd5b600073ffffffffffffffffffffffffffffffffffffffff168573ffffffffffffffffffffffffffffffffffffffff161415151561161557600080fd5b601860003373ffffffffffffffffffffffffffffffffffffffff1673ffffffffffffffffffffffffffffffffffffffff16815260200190815260200160002060009054906101000a900460ff1615151561166e57600080fd5b611679858585612abb565b50505b9392505050565b600e5481565b6000600b541180156116b05750600d546116ae600b5442612a3390919063ffffffff16565b115b156116d5576000601660006101000a81548160ff0219169083151502179055506116da565b600080fd5b6000546006541015156116ec57600080fd5b60006011541115156116fd57600080fd5b61177360115460026000600960009054906101000a900473ffffffffffffffffffffffffffffffffffffffff1673ffffffffffffffffffffffffffffffffffffffff1673ffffffffffffffffffffffffffffffffffffffff16815260200190815260200160002054612a9d90919063ffffffff16565b60026000600960009054906101000a900473ffffffffffffffffffffffffffffffffffffffff1673ffffffffffffffffffffffffffffffffffffffff1673ffffffffffffffffffffffffffffffffffffffff168152602001908152602001600020819055506117ef601154600654612a9d90919063ffffffff16565b6006819055506011546014819055506000601181905550565b601281565b600080600360009054906101000a900473ffffffffffffffffffffffffffffffffffffffff1673ffffffffffffffffffffffffffffffffffffffff163373ffffffffffffffffffffffffffffffffffffffff1614151561186c57600080fd5b611887670de0b6b3a764000084612a4c90919063ffffffff16565b9050806012541015151561189a57600080fd5b6118af81600654612a9d90919063ffffffff16565b600681905550600054600654111515156118c857600080fd5b61191a81600260008773ffffffffffffffffffffffffffffffffffffffff1673ffffffffffffffffffffffffffffffffffffffff16815260200190815260200160002054612a9d90919063ffffffff16565b600260008673ffffffffffffffffffffffffffffffffffffffff1673ffffffffffffffffffffffffffffffffffffffff1681526020019081526020016000208190555061197281601254612a3390919063ffffffff16565b6012819055508373ffffffffffffffffffffffffffffffffffffffff163073ffffffffffffffffffffffffffffffffffffffff167fddf252ad1be2c89b69c2b068fc378daa952ba7f163c4a11628f55a4df523b3ef836040518082815260200191505060405180910390a3600191505092915050565b6000806000831115156119fa57600080fd5b600260003373ffffffffffffffffffffffffffffffffffffffff1673ffffffffffffffffffffffffffffffffffffffff168152602001908152602001600020548311151515611a4857600080fd5b339050611a9d83600260008473ffffffffffffffffffffffffffffffffffffffff1673ffffffffffffffffffffffffffffffffffffffff16815260200190815260200160002054612a3390919063ffffffff16565b600260008373ffffffffffffffffffffffffffffffffffffffff1673ffffffffffffffffffffffffffffffffffffffff16815260200190815260200160002081905550611af583600054612a3390919063ffffffff16565b6000819055508073ffffffffffffffffffffffffffffffffffffffff167fcc16f5dbb4873280815c1ee09dbd06736cffcc184412cf7a71a0fdb75d397ca5846040518082815260200191505060405180910390a26001915050919050565b600080600360009054906101000a900473ffffffffffffffffffffffffffffffffffffffff1673ffffffffffffffffffffffffffffffffffffffff163373ffffffffffffffffffffffffffffffffffffffff16141515611bb257600080fd5b60001515600560149054906101000a900460ff161515141515611bd457600080fd5b611beb600654600054612a3390919063ffffffff16565b9050611bf6816119e8565b91505090565b600460009054906101000a900473ffffffffffffffffffffffffffffffffffffffff1681565b600360009054906101000a900473ffffffffffffffffffffffffffffffffffffffff1673ffffffffffffffffffffffffffffffffffffffff163373ffffffffffffffffffffffffffffffffffffffff16141515611c7e57600080fd5b60001515600560149054906101000a900460ff16151514151515611ca157600080fd5b6000600560146101000a81548160ff021916908315150217905550565b60115481565b6000600260008373ffffffffffffffffffffffffffffffffffffffff1673ffffffffffffffffffffffffffffffffffffffff168152602001908152602001600020549050919050565b60145481565b600760009054906101000a900473ffffffffffffffffffffffffffffffffffffffff1681565b60186020528060005260406000206000915054906101000a900460ff1681565b600360009054906101000a900473ffffffffffffffffffffffffffffffffffffffff1681565b6000600360046020820201600036905010151515611d9957fe5b83600160003373ffffffffffffffffffffffffffffffffffffffff1673ffffffffffffffffffffffffffffffffffffffff16815260200190815260200160002060008773ffffffffffffffffffffffffffffffffffffffff1673ffffffffffffffffffffffffffffffffffffffff16815260200190815260200160002054141515611e2357600080fd5b82600160003373ffffffffffffffffffffffffffffffffffffffff1673ffffffffffffffffffffffffffffffffffffffff16815260200190815260200160002060008773ffffffffffffffffffffffffffffffffffffffff1673ffffffffffffffffffffffffffffffffffffffff168152602001908152602001600020819055508473ffffffffffffffffffffffffffffffffffffffff163373ffffffffffffffffffffffffffffffffffffffff167f8c5be1e5ebec7d5bd14f71427d1e84f3dd0314c0f7b2291e5b200ac8c7c3b925856040518082815260200191505060405180910390a360019150509392505050565b6040805190810160405280600381526020017f545248000000000000000000000000000000000000000000000000000000000081525081565b600560149054906101000a900460ff1681565b600b5481565b6000600360009054906101000a900473ffffffffffffffffffffffffffffffffffffffff1673ffffffffffffffffffffffffffffffffffffffff163373ffffffffffffffffffffffffffffffffffffffff16141561207d57600260046020820201600036905010151515611fd757fe5b600073ffffffffffffffffffffffffffffffffffffffff168473ffffffffffffffffffffffffffffffffffffffff161415151561201357600080fd5b601860003373ffffffffffffffffffffffffffffffffffffffff1673ffffffffffffffffffffffffffffffffffffffff16815260200190815260200160002060009054906101000a900460ff1615151561206c57600080fd5b6120768484612e94565b5050612159565b60001515600560149054906101000a900460ff16151514151561209f57600080fd5b6002600460208202016000369050101515156120b757fe5b600073ffffffffffffffffffffffffffffffffffffffff168473ffffffffffffffffffffffffffffffffffffffff16141515156120f357600080fd5b601860003373ffffffffffffffffffffffffffffffffffffffff1673ffffffffffffffffffffffffffffffffffffffff16815260200190815260200160002060009054906101000a900460ff1615151561214c57600080fd5b6121568484612e94565b50505b92915050565b60135481565b601660019054906101000a900473ffffffffffffffffffffffffffffffffffffffff1681565b600080600b5414156121a05760009050612210565b600d546121b8600b5442612a3390919063ffffffff16565b1180156121da5750600c546121d8600b5442612a3390919063ffffffff16565b105b156121e85760019050612210565b600c54612200600b5442612a3390919063ffffffff16565b111561220f5760029050612210565b5b90565b600f5481565b600860009054906101000a900473ffffffffffffffffffffffffffffffffffffffff1681565b600560009054906101000a900473ffffffffffffffffffffffffffffffffffffffff1681565b6000600b5411801561228c5750600d5461228a600b5442612a3390919063ffffffff16565b115b156122b1576000601660006101000a81548160ff0219169083151502179055506122b6565b600080fd5b6000546006541015156122c857600080fd5b60006010541115156122d957600080fd5b61234f60105460026000600a60009054906101000a900473ffffffffffffffffffffffffffffffffffffffff1673ffffffffffffffffffffffffffffffffffffffff1673ffffffffffffffffffffffffffffffffffffffff16815260200190815260200160002054612a9d90919063ffffffff16565b60026000600a60009054906101000a900473ffffffffffffffffffffffffffffffffffffffff1673ffffffffffffffffffffffffffffffffffffffff1673ffffffffffffffffffffffffffffffffffffffff168152602001908152602001600020819055506123cb601054600654612a9d90919063ffffffff16565b6006819055506010546015819055506000601081905550565b6000600160008473ffffffffffffffffffffffffffffffffffffffff1673ffffffffffffffffffffffffffffffffffffffff16815260200190815260200160002060008373ffffffffffffffffffffffffffffffffffffffff1673ffffffffffffffffffffffffffffffffffffffff16815260200190815260200160002054905092915050565b60105481565b60065481565b600360009054906101000a900473ffffffffffffffffffffffffffffffffffffffff1673ffffffffffffffffffffffffffffffffffffffff163373ffffffffffffffffffffffffffffffffffffffff161415156124d357600080fd5b60008273ffffffffffffffffffffffffffffffffffffffff16141515156124f957600080fd5b600180612504575060005b151581151514151561251557600080fd5b80601860008473ffffffffffffffffffffffffffffffffffffffff1673ffffffffffffffffffffffffffffffffffffffff16815260200190815260200160002060006101000a81548160ff0219169083151502179055507f5ea9caffecf85bd277bd191ab41dd68c548f001913f64c16c3a9abe77dce2de58282604051808373ffffffffffffffffffffffffffffffffffffffff1673ffffffffffffffffffffffffffffffffffffffff168152602001821515151581526020019250505060405180910390a15050565b600360009054906101000a900473ffffffffffffffffffffffffffffffffffffffff1673ffffffffffffffffffffffffffffffffffffffff163373ffffffffffffffffffffffffffffffffffffffff1614151561263b57600080fd5b8073ffffffffffffffffffffffffffffffffffffffff16600360009054906101000a900473ffffffffffffffffffffffffffffffffffffffff1673ffffffffffffffffffffffffffffffffffffffff167f8be0079c531659141344cd1fd0a4f28419497f9722a3daafe3b4186f6b6457e060405160405180910390a380600360006101000a81548173ffffffffffffffffffffffffffffffffffffffff021916908373ffffffffffffffffffffffffffffffffffffffff16021790555050565b600a60009054906101000a900473ffffffffffffffffffffffffffffffffffffffff1681565b600360009054906101000a900473ffffffffffffffffffffffffffffffffffffffff1673ffffffffffffffffffffffffffffffffffffffff163373ffffffffffffffffffffffffffffffffffffffff1614151561277d57600080fd5b600073ffffffffffffffffffffffffffffffffffffffff168173ffffffffffffffffffffffffffffffffffffffff16141515156127b957600080fd5b80600560006101000a81548173ffffffffffffffffffffffffffffffffffffffff021916908373ffffffffffffffffffffffffffffffffffffffff16021790555061287060175460026000600560009054906101000a900473ffffffffffffffffffffffffffffffffffffffff1673ffffffffffffffffffffffffffffffffffffffff1673ffffffffffffffffffffffffffffffffffffffff16815260200190815260200160002054612a9d90919063ffffffff16565b60026000600560009054906101000a900473ffffffffffffffffffffffffffffffffffffffff1673ffffffffffffffffffffffffffffffffffffffff1673ffffffffffffffffffffffffffffffffffffffff168152602001908152602001600020819055506128ec601754600654612a9d90919063ffffffff16565b60068190555042600b81905550612902816125df565b6000546006541115151561291257fe5b600560009054906101000a900473ffffffffffffffffffffffffffffffffffffffff1673ffffffffffffffffffffffffffffffffffffffff163073ffffffffffffffffffffffffffffffffffffffff167fddf252ad1be2c89b69c2b068fc378daa952ba7f163c4a11628f55a4df523b3ef6006546040518082815260200191505060405180910390a37f9ca62f58e4fb70943b408da6f28c33dd8a48223bc1f3cb8345fc8ba01be7fc24600560009054906101000a900473ffffffffffffffffffffffffffffffffffffffff16600654604051808373ffffffffffffffffffffffffffffffffffffffff1673ffffffffffffffffffffffffffffffffffffffff1681526020018281526020019250505060405180910390a150565b60155481565b6000828211151515612a4157fe5b818303905092915050565b6000806000841415612a615760009150612a80565b8284029050828482811515612a7257fe5b04141515612a7c57fe5b8091505b5092915050565b60008183811515612a9457fe5b04905092915050565b6000808284019050838110151515612ab157fe5b8091505092915050565b6000600360046020820201600036905010151515612ad557fe5b600073ffffffffffffffffffffffffffffffffffffffff168473ffffffffffffffffffffffffffffffffffffffff1614151515612b1157600080fd5b600260008673ffffffffffffffffffffffffffffffffffffffff1673ffffffffffffffffffffffffffffffffffffffff168152602001908152602001600020548311151515612b5f57600080fd5b600160008673ffffffffffffffffffffffffffffffffffffffff1673ffffffffffffffffffffffffffffffffffffffff16815260200190815260200160002060003373ffffffffffffffffffffffffffffffffffffffff1673ffffffffffffffffffffffffffffffffffffffff168152602001908152602001600020548311151515612bea57600080fd5b612c3c83600260008873ffffffffffffffffffffffffffffffffffffffff1673ffffffffffffffffffffffffffffffffffffffff16815260200190815260200160002054612a3390919063ffffffff16565b600260008773ffffffffffffffffffffffffffffffffffffffff1673ffffffffffffffffffffffffffffffffffffffff16815260200190815260200160002081905550612cd183600260008773ffffffffffffffffffffffffffffffffffffffff1673ffffffffffffffffffffffffffffffffffffffff16815260200190815260200160002054612a9d90919063ffffffff16565b600260008673ffffffffffffffffffffffffffffffffffffffff1673ffffffffffffffffffffffffffffffffffffffff16815260200190815260200160002081905550612da383600160008873ffffffffffffffffffffffffffffffffffffffff1673ffffffffffffffffffffffffffffffffffffffff16815260200190815260200160002060003373ffffffffffffffffffffffffffffffffffffffff1673ffffffffffffffffffffffffffffffffffffffff16815260200190815260200160002054612a3390919063ffffffff16565b600160008773ffffffffffffffffffffffffffffffffffffffff1673ffffffffffffffffffffffffffffffffffffffff16815260200190815260200160002060003373ffffffffffffffffffffffffffffffffffffffff1673ffffffffffffffffffffffffffffffffffffffff168152602001908152602001600020819055508373ffffffffffffffffffffffffffffffffffffffff168573ffffffffffffffffffffffffffffffffffffffff167fddf252ad1be2c89b69c2b068fc378daa952ba7f163c4a11628f55a4df523b3ef856040518082815260200191505060405180910390a360019150509392505050565b6000600260046020820201600036905010151515612eae57fe5b82600260003373ffffffffffffffffffffffffffffffffffffffff1673ffffffffffffffffffffffffffffffffffffffff1681526020019081526020016000205410158015612efd5750600083115b8015612f885750600260008573ffffffffffffffffffffffffffffffffffffffff1673ffffffffffffffffffffffffffffffffffffffff1681526020019081526020016000205483600260008773ffffffffffffffffffffffffffffffffffffffff1673ffffffffffffffffffffffffffffffffffffffff1681526020019081526020016000205401115b156130955782600260003373ffffffffffffffffffffffffffffffffffffffff1673ffffffffffffffffffffffffffffffffffffffff1681526020019081526020016000206000828254039250508190555082600260008673ffffffffffffffffffffffffffffffffffffffff1673ffffffffffffffffffffffffffffffffffffffff168152602001908152602001600020600082825401925050819055508373ffffffffffffffffffffffffffffffffffffffff163373ffffffffffffffffffffffffffffffffffffffff167fddf252ad1be2c89b69c2b068fc378daa952ba7f163c4a11628f55a4df523b3ef856040518082815260200191505060405180910390a36001915061309a565b600091505b50929150505600a165627a7a723058202ca90a7af5de927b6adccbb0c180741307a52adf72102ae7079f9965f562e67a0029",
  "source": "pragma solidity ^0.4.21;\n\n\ncontract ERC20 {\n // modifiers\n\n // mitigate short address attack\n // thanks to https://github.com/numerai/contract/blob/c182465f82e50ced8dacb3977ec374a892f5fa8c/contracts/Safe.sol#L30-L34.\n // TODO: doublecheck implication of >= compared to ==\n    modifier onlyPayloadSize(uint numWords) {\n        assert(msg.data.length >= numWords * 32 + 4);\n        _;\n    }\n\n    uint256 public totalSupply;\n    /*\n      *  Public functions\n      */\n    function balanceOf(address who) public view returns (uint256);\n    function transfer(address to, uint256 value) public returns (bool);\n\n    function allowance(address owner, address spender) public view returns (uint256);\n    function transferFrom(address from, address to, uint256 value) public returns (bool);\n    function approve(address spender, uint256 value) public returns (bool);\n\n    /*\n      *  Events\n      */\n    event Transfer(address indexed from, address indexed to, uint256 value);\n    event Approval(address indexed owner, address indexed spender, uint256 value);\n    event Burn(address indexed from, uint256 value);\n    event SaleContractActivation(address saleContract, uint256 tokensForSale);\n}\n\n\n\n/**\n * @title SafeMath\n * @dev Math operations with safety checks that throw on error\n */\nlibrary SafeMath {\n  // it is recommended to define functions which can neither read the state of blockchain nor write in it as pure instead of constant\n\n  /**\n  * @dev Multiplies two numbers, throws on overflow.\n  */\n    function mul(uint256 a, uint256 b) internal pure returns (uint256) {\n        if (a == 0) {\n            return 0;\n        }\n        uint256 c = a * b;\n        assert(c / a == b);\n        return c;\n    }\n\n    /**\n    * @dev Integer division of two numbers, truncating the quotient.\n    */\n    function div(uint256 a, uint256 b) internal pure returns (uint256) {\n        // assert(b > 0); // Solidity automatically throws when dividing by 0\n        // uint256 c = a / b;\n        // assert(a == b * c + a % b); // There is no case in which this doesn't hold\n        return a / b;\n    }\n\n    /**\n    * @dev Subtracts two numbers, throws on overflow (i.e. if subtrahend is greater than minuend).\n    */\n    function sub(uint256 a, uint256 b) internal pure returns (uint256) {\n        assert(b <= a);\n        return a - b;\n    }\n\n    /**\n    * @dev Adds two numbers, throws on overflow.\n    */\n    function add(uint256 a, uint256 b) internal pure returns (uint256) {\n        uint256 c = a + b;\n        assert(c >= a);\n        return c;\n    }\n\n}\n\n\n/**\n * @title Standard ERC20 token\n *\n * @dev Implementation of the basic standard token.\n * @dev https://github.com/ethereum/EIPs/issues/20\n * @dev Based on code by FirstBlood: https://github.com/Firstbloodio/token/blob/master/smart_contract/FirstBloodToken.sol\n */\ncontract StandardToken is ERC20 {\n    using SafeMath for uint256;\n    mapping (address => mapping (address => uint256)) internal allowed;\n    mapping(address => uint256) balances;\n\n  /// @dev Returns number of tokens owned by given address\n  /// @param _owner Address of token owner\n  /// @return Balance of owner\n\n    // it is recommended to define functions which can read the state of blockchain but cannot write in it as view instead of constant\n\n    function balanceOf(address _owner) public view returns (uint256) {\n        return balances[_owner];\n    }\n\n  /// @dev Transfers sender's tokens to a given address. Returns success\n  /// @param _to Address of token receiver\n  /// @param _value Number of tokens to transfer\n  /// @return Was transfer successful?\n\n    function transfer(address _to, uint256 _value) public onlyPayloadSize(2) returns (bool success) {\n        if (balances[msg.sender] >= _value && _value > 0 && balances[_to] + _value > balances[_to]) {\n            balances[msg.sender] -= _value;\n            balances[_to] += _value;\n            emit Transfer(msg.sender, _to, _value); // solhint-disable-line\n            return true;\n        } else {\n            return false;\n        }\n    }\n\n    /// @dev Allows allowed third party to transfer tokens from one address to another. Returns success\n    /// @param _from Address from where tokens are withdrawn\n    /// @param _to Address to where tokens are sent\n    /// @param _value Number of tokens to transfer\n    /// @return Was transfer successful?\n\n    function transferFrom(address _from, address _to, uint256 _value) public onlyPayloadSize(3) returns (bool) {\n        require(_to != address(0));\n        require(_value <= balances[_from]);\n        require(_value <= allowed[_from][msg.sender]);\n\n        balances[_from] = balances[_from].sub(_value);\n        balances[_to] = balances[_to].add(_value);\n        allowed[_from][msg.sender] = allowed[_from][msg.sender].sub(_value);\n        emit Transfer(_from, _to, _value); // solhint-disable-line\n        return true;\n    }\n\n  /**\n   * @dev Approve the passed address to spend the specified amount of tokens on behalf of msg.sender.\n   *\n   * Beware that changing an allowance with this method brings the risk that someone may use both the old\n   * and the new allowance by unfortunate transaction ordering. One possible solution to mitigate this\n   * race condition is to first reduce the spender's allowance to 0 and set the desired value afterwards:\n   * https://github.com/ethereum/EIPs/issues/20#issuecomment-263524729\n   * @param _spender The address which will spend the funds.\n   * @param _value The amount of tokens to be spent.\n   */\n\n\n    function approve(address _spender, uint256 _value) public onlyPayloadSize(2) returns (bool) {\n      // To change the approve amount you first have to reduce the addresses`\n      //  allowance to zero by calling `approve(_spender, 0)` if it is not\n      //  already 0 to mitigate the race condition described here:\n      //  https://github.com/ethereum/EIPs/issues/20#issuecomment-263524729\n\n        require(_value == 0 && (allowed[msg.sender][_spender] == 0));\n        allowed[msg.sender][_spender] = _value;\n        emit Approval(msg.sender, _spender, _value); // solhint-disable-line\n        return true;\n    }\n\n    function changeApproval(address _spender, uint256 _oldValue, uint256 _newValue) public onlyPayloadSize(3) returns (bool success) {\n        require(allowed[msg.sender][_spender] == _oldValue);\n        allowed[msg.sender][_spender] = _newValue;\n        emit Approval(msg.sender, _spender, _newValue); // solhint-disable-line\n        return true;\n    }\n\n  /**\n   * @dev Function to check the amount of tokens that an owner allowed to a spender.\n   * @param _owner address The address which owns the funds.\n   * @param _spender address The address which will spend the funds.\n   * @return A uint256 specifying the amount of tokens still available for the spender.\n   */\n    function allowance(address _owner, address _spender) public view returns (uint256) {\n        return allowed[_owner][_spender];\n    }\n\n /**\n  * @dev Burns a specific amount of tokens.\n  * @param _value The amount of token to be burned.\n  */\n    function burn(uint256 _value) public returns (bool burnSuccess) {\n        require(_value > 0);\n        require(_value <= balances[msg.sender]);\n        // no need to require value <= totalSupply, since that would imply the\n        // sender's balance is greater than the totalSupply, which *should* be an assertion failure\n\n        address burner = msg.sender;\n        balances[burner] = balances[burner].sub(_value);\n        totalSupply = totalSupply.sub(_value);\n        emit Burn(burner, _value); // solhint-disable-line\n        return true;\n    }\n\n}\n\n/**\n * @title Ownable\n * @dev The Ownable contract has an owner address, and provides basic authorization control\n * functions, this simplifies the implementation of \"user permissions\".\n */\n\ncontract Ownable {\n    address public owner;\n    address public creater;\n\n    event OwnershipTransferred(address indexed previousOwner, address indexed newOwner);\n\n    /**\n    * @dev The Ownable constructor sets the original `owner` of the contract to the sender\n    * account.\n    */\n    function Ownable(address _owner) public {\n        creater = msg.sender;\n        if (_owner != 0) {\n            owner = _owner;\n\n        } else {\n            owner = creater;\n        }\n\n    }\n    /**\n    * @dev Throws if called by any account other than the owner.\n    */\n\n    modifier onlyOwner() {\n        require(msg.sender == owner);\n        _;\n    }\n\n    modifier isCreator() {\n        require(msg.sender == creater);\n        _;\n    }\n\n   \n\n}\n\n\n\ncontract TravelHelperToken is StandardToken, Ownable {\n\n//Begin: state variables\n    address public saleContract;\n    string public constant name = \"TravelHelperToken\";\n    string public constant symbol = \"TRH\";\n    uint public constant decimals = 18;\n    bool public fundraising = true;\n    uint public totalReleased = 0;\n    address public teamAddressOne;\n    address public teamAddressTwo;\n    address public advisorsAddress;\n    address public marketingTeamAddress;\n    uint public icoStartTime;\n    uint256 vestingPeriod = 18921600; //182 days + 30 days crowdsale+ 7 days presale\n    uint256 tokensUnlockPeriod = 3196800; // 7 days presale + 30 days crowdsale\n    uint public tokensSupply = 5000000000;\n    uint public teamTokens = 1500000000 * 1 ether;\n    uint public marketingTeamTokens = 500000000 * 1 ether; \n    uint public advisorsTokens = 350000000 * 1 ether;\n    uint public bountyTokens = 150000000 * 1 ether;\n    uint public releasedTeamTokens = 0;\n    uint public releasedAdvisorsTokens = 0;\n    uint public releasedMarketingTokens = 0;\n    bool tokensLocked = true;\n    Ownable public ownable;\n    uint public tokensForSale = 2500000000 * 1 ether;\n\n    mapping (address => bool) public frozenAccounts;\n    mapping(bytes32=>bool) validIds;\n //End: state variables\n //Begin: events\n    event FrozenFund(address target, bool frozen);\n    event PriceLog(string text);\n//End: events\n\n//Begin: modifiers\n\n\n    modifier manageTransfer() {\n        if (msg.sender == owner) {\n            _;\n        }\n        else {\n            require(fundraising == false);\n            _;\n        }\n    }\n    \n    modifier tokenNotLocked() {\n        if (icoStartTime > 0 && now.sub(icoStartTime) > tokensUnlockPeriod) {\n            tokensLocked = false;\n        } else {\n            revert();\n        }\n    \n        _;\n    }\n\n//End: modifiers\n\n//Begin: constructor\n    function TravelHelperToken(\n    address _tokensOwner,\n    address _teamAddressOne,\n    address _teamAddressTwo,\n    address _marketingTeamAddress,\n    address _advisorsAddress) public Ownable(_tokensOwner) {\n        require(_tokensOwner != 0x0);\n        require(_teamAddressOne != 0x0);\n        require(_teamAddressTwo != 0x0);\n        require(_marketingTeamAddress != 0x0);\n        require(_advisorsAddress != 0x0);\n        teamAddressOne = _teamAddressOne;\n        teamAddressTwo = _teamAddressTwo;\n        marketingTeamAddress = _marketingTeamAddress;\n        advisorsAddress = _advisorsAddress;\n        totalSupply = tokensSupply * (uint256(10) ** decimals);\n        balances[owner] = totalSupply;\n        emit Transfer(0x0, owner, totalSupply);\n\n    }\n\n\n//End: constructor\n\n    \n\n//Begin: overriden methods\n\n    function transfer(address _to, uint256 _value) public manageTransfer onlyPayloadSize(2) returns (bool success) {\n        require(_to != address(0));\n        require(!frozenAccounts[msg.sender]);\n        super.transfer(_to, _value);\n    }\n\n    function transferFrom(address _from, address _to, uint256 _value)\n        public\n        manageTransfer\n        onlyPayloadSize(3) returns (bool success)\n    {\n        require(_to != address(0));\n        require(_from != address(0));\n        require(!frozenAccounts[msg.sender]);\n        super.transferFrom(_from, _to, _value);\n\n    }\n\n\n//End: overriden methods\n\n\n//Being: setters\n   \n    function activateSaleContract(address _saleContract) public onlyOwner {\n        require(_saleContract != address(0));\n        saleContract = _saleContract;\n        balances[saleContract] = balances[saleContract].add(tokensForSale);\n        totalReleased = totalReleased.add(tokensForSale);\n        icoStartTime = now;\n        transferOwnership(_saleContract);\n        assert(totalReleased <= totalSupply);\n        emit Transfer(address(this), saleContract, totalReleased);\n        emit SaleContractActivation(saleContract, totalReleased);\n    }\n   \n    function burn() public onlyOwner returns (bool burnSuccess) {\n        require(fundraising == false);\n        uint _value = totalSupply.sub(totalReleased);\n        return super.burn(_value);\n    }\n    \n   \n    function vestingStage() public view returns (uint) {\n        if (icoStartTime == 0)\n            return 0;\n\n        if (now.sub(icoStartTime) > tokensUnlockPeriod && now.sub(icoStartTime) < vestingPeriod ) {\n            return 1; //stage 1 after 30 days\n        }\n        else if (now.sub(icoStartTime) > vestingPeriod) {\n            return 2; // stage two after 6 months\n        }\n    }\n   \n   function releaseTeamTokens() tokenNotLocked public returns (bool) {\n        require(teamTokens > 0);\n        require(totalReleased < totalSupply);\n       \n    \n        if (vestingStage() == 1 && releasedTeamTokens  == 0) {\n            uint totalValue = teamTokens.mul(50).div(100);\n            uint eachTeamValue = totalValue.mul(50).div(100);\n            balances[teamAddressOne] = balances[teamAddressOne].add(eachTeamValue);\n            balances[teamAddressTwo] = balances[teamAddressTwo].add(eachTeamValue);\n            releasedTeamTokens = releasedTeamTokens.add(totalValue);\n            teamTokens = teamTokens.sub(totalValue);\n            totalReleased = totalReleased.add(totalValue);\n            return true;\n        }\n        else if (vestingStage() == 2) {\n            uint finalValue = teamTokens;\n            uint finaleachTeamValue = finalValue.mul(50).div(100);\n            balances[teamAddressOne] = balances[teamAddressOne].add(finaleachTeamValue);\n            balances[teamAddressTwo] = balances[teamAddressTwo].add(finaleachTeamValue);\n            teamTokens = 0;\n            releasedTeamTokens = releasedTeamTokens.add(finalValue);\n            totalReleased = totalReleased.add(finalValue);\n            \n            return true;\n            \n        }\n       \n        return false;\n    }\n   \n    function releaseAdvisorsTokens() tokenNotLocked public {\n        require(totalReleased < totalSupply);\n        require(advisorsTokens > 0);\n        balances[advisorsAddress] = balances[advisorsAddress].add(advisorsTokens);\n        totalReleased = totalReleased.add(advisorsTokens);\n        releasedAdvisorsTokens = advisorsTokens;\n        advisorsTokens = 0;\n       \n    }\n     function releaseMarketingTokens() public tokenNotLocked {\n        require(totalReleased < totalSupply);\n        require(marketingTeamTokens > 0);\n        balances[marketingTeamAddress] = balances[marketingTeamAddress].add(marketingTeamTokens);\n        totalReleased = totalReleased.add(marketingTeamTokens);\n        releasedMarketingTokens = marketingTeamTokens;\n        marketingTeamTokens = 0;\n        \n    }\n\n    function finalize() public  onlyOwner {\n        require(fundraising != false);\n        // Switch to Operational state. This is the only place this can happen.\n        fundraising = false;\n    }\n\n    function freezeAccount (address target, bool freeze) public onlyOwner {\n        require(target != 0x0);\n        require(freeze == (true || false));\n        frozenAccounts[target] = freeze;\n        emit FrozenFund(target, freeze); // solhint-disable-line\n    }\n    \n    function sendBounty(address _to, uint256 _value) public onlyOwner returns (bool) {\n        uint256 value = _value.mul(1 ether);\n        require(bountyTokens >= value);\n        totalReleased = totalReleased.add(value);\n        require(totalReleased <= totalSupply);\n        balances[_to] = balances[_to].add(value);\n        bountyTokens = bountyTokens.sub(value);\n        emit Transfer(address(this), _to, value);\n        return true;\n    }\n    /**\n    * @dev Allows the current owner to transfer control of the contract to a newOwner.\n    * @param newOwner The address to transfer ownership to.\n    */\n    function transferOwnership(address newOwner) public onlyOwner {\n        emit OwnershipTransferred(owner, newOwner); // solhint-disable-line\n        owner = newOwner;\n    }\n\n//End: setters\n   \n    function() public {\n        revert();\n    }\n\n}\n",
  "sourcePath": "/Users/preetamrao/bitbucket/quillhash/ico_address_whitelisitng/contracts/token.sol",
  "compiler": {
    "name": "solc",
    "version": "0.4.21+commit.dfe3193c.Emscripten.clang"
  },
  "schemaVersion": "2.0.0",
  "updatedAt": "2018-07-10T15:45:23.514Z"
}